{
  "_format": "hh-sol-artifact-1",
  "contractName": "HashStorage",
  "sourceName": "contracts/HashStorage.sol",
  "abi": [
    {
      "anonymous": false,
      "inputs": [
        {
          "indexed": false,
          "internalType": "string",
          "name": "hash",
          "type": "string"
        }
      ],
      "name": "HashStored",
      "type": "event"
    },
    {
      "inputs": [
        {
          "internalType": "string",
          "name": "hash",
          "type": "string"
        }
      ],
      "name": "storeHash",
      "outputs": [],
      "stateMutability": "nonpayable",
      "type": "function"
    },
    {
      "inputs": [
        {
          "internalType": "string",
          "name": "",
          "type": "string"
        }
      ],
      "name": "storedHashes",
      "outputs": [
        {
          "internalType": "bool",
          "name": "",
          "type": "bool"
        }
      ],
      "stateMutability": "view",
      "type": "function"
    },
    {
      "inputs": [
        {
          "internalType": "string",
          "name": "hash",
          "type": "string"
        }
      ],
      "name": "verifyHash",
      "outputs": [
        {
          "internalType": "bool",
          "name": "",
          "type": "bool"
        }
      ],
      "stateMutability": "view",
      "type": "function"
    }
  ],
  "bytecode": "0x6080604052348015600f57600080fd5b506103278061001f6000396000f3fe608060405234801561001057600080fd5b50600436106100415760003560e01c806316663ea61461004657806371dc61cb1461008857806386fb28131461009d575b600080fd5b6100746100543660046101c5565b805160208183018101805160008252928201919093012091525460ff1681565b604051901515815260200160405180910390f35b61009b6100963660046101c5565b6100b0565b005b6100746100ab3660046101c5565b610185565b6000816040516100c091906102a2565b9081526040519081900360200190205460ff161561011a5760405162461bcd60e51b81526020600482015260136024820152724861736820616c72656164792065786973747360681b604482015260640160405180910390fd5b600160008260405161012c91906102a2565b908152604051908190036020018120805492151560ff19909316929092179091557fc11dc30fab9e1049e39849c934756251850c71b749c0dff181b2a28074fca60e9061017a9083906102be565b60405180910390a150565b6000808260405161019691906102a2565b9081526040519081900360200190205460ff1692915050565b634e487b7160e01b600052604160045260246000fd5b6000602082840312156101d757600080fd5b813567ffffffffffffffff8111156101ee57600080fd5b8201601f810184136101ff57600080fd5b803567ffffffffffffffff811115610219576102196101af565b604051601f8201601f19908116603f0116810167ffffffffffffffff81118282101715610248576102486101af565b60405281815282820160200186101561026057600080fd5b81602084016020830137600091810160200191909152949350505050565b60005b83811015610299578181015183820152602001610281565b50506000910152565b600082516102b481846020870161027e565b9190910192915050565b60208152600082518060208401526102dd81604085016020870161027e565b601f01601f1916919091016040019291505056fea2646970667358221220941f50542cbaf9b0fe671717012073b3606d50919e1cbd8b1f5b139abf419c3264736f6c634300081c0033",
  "linkReferences": {},
  "deployedLinkReferences": {}
}